:020000040800F2
:1000000000200020FD190008A10A0008A30A00082A
:1000100000000000000000000000000000000000E0
:10002000000000000000000000000000A50A000819
:100030000000000000000000A70A0008A90A00084C
:100040004D1A00084D1A00084D1A00084D1A0008F4
:100050004D1A00083D0600084D1A00084D1A000808
:100060004D1A00084D1A00084D1A0008B10A000880
:100070004D1A00084D1A00084D1A00084D1A0008C4
:100080004D1A00084D1A0008000000004D1A000823
:100090004D1A00084D1A00084D1A00084D1A0008A4
:1000A0004D1A00084D1A00084D1A00084D1A000894
:1000B0004D1A0008000000004D1A00080000000062
:1000C00003B47146490840004900095E49008E4466
:1000D00003BC7047002243088B4274D303098B4250
:1000E0005FD3030A8B4244D3030B8B4228D3030C08
:1000F0008B420DD3FF22090212BA030C8B4202D3AA
:100100001212090265D0030B8B4219D300E0090AD1
:10011000C30B8B4201D3CB03C01A5241830B8B42DA
:1001200001D38B03C01A5241430B8B4201D34B03C3
:10013000C01A5241030B8B4201D30B03C01A524128
:10014000C30A8B4201D3CB02C01A5241830A8B42AD
:1001500001D38B02C01A5241430A8B4201D34B0296
:10016000C01A5241030A8B4201D30B02C01A5241FA
:10017000CDD2C3098B4201D3CB01C01A52418309AE
:100180008B4201D38B01C01A524143098B4201D3E8
:100190004B01C01A524103098B4201D30B01C01A13
:1001A0005241C3088B4201D3CB00C01A524183088D
:1001B0008B4201D38B00C01A524143088B4201D3BA
:1001C0004B00C01A5241411A00D20146524110461A
:1001D0007047FFE701B5002000F006F802BDC046F9
:1001E0000029F7D076E770477047C04610B5064C37
:1001F0002378002B07D1054B002B02D0044800E0E8
:1002000000BF0123237010BD6C0600200000000019
:1002100080290008044B10B5002B03D00349044883
:1002200000E000BF10BDC0460000000070060020C6
:100230008029000810B586B004AC082200212000F7
:1002400001F026FD1E4B5A698021C9030A435A61F9
:100250005A690A400392039A5A69802189020A4323
:100260005A615A690A400292029A5A698021C90267
:100270000A435A615B690B400193019B114A9368E1
:100280000F218B4393609021C905CB6803208343E2
:1002900001221343CB600B6883430B6004922271ED
:1002A00000236371A271200001F03EFB00220021B7
:1002B000052000F09DFC052000F09EFC06B010BD5E
:1002C000001002400000014000B583B0094A5169A6
:1002D000012319435161526913400193019B00228C
:1002E00000210B2000F084FC0B2000F085FC03B003
:1002F00000BDC0460010024082B043001818002321
:10030000019304E0C046C046019B01330193019B69
:100310008342F7D302B0704770B51420FFF7ECFFAB
:100320000A4CA36980252D022B43A3611420FFF7FB
:10033000E3FFA26980231B061343A3611420FFF788
:10034000DBFFA3691D43A56170BDC04600080048DE
:1003500010B50400454A91698023DB010B4393618A
:1003600043B2002B46DB9022D205916980231B0605
:100370000B439361630645D59022D2059169802392
:100380005B010B439361A30644D5394A91698023ED
:100390009B000B439361E30643D5354A9169802363
:1003A0005B000B439361FFF7B7FF230740D5902213
:1003B000D205916980231B020B43936163073FD5EC
:1003C0009022D205916980235B010B439361A307BF
:1003D0003ED5274A916980239B000B439361E40734
:1003E0003DD5234A916980235B000B439361FFF75E
:1003F00093FF10BD9022D205916980231B020B430D
:100400009361B7E79022D205916980235B050B4386
:100410009361B8E7164A916980239B040B4393616B
:10042000B9E7134A916980235B040B439361BAE7F0
:100430009022D205916980231B060B439361BDE78F
:100440009022D205916980235B050B439361BEE73F
:10045000074A916980239B040B439361BFE7044AD9
:10046000916980235B040B439361C0E70008004857
:100470000004004870B50500002403E0FFF768FFA2
:100480000134E4B2285D0028F8D170BD10B5040035
:10049000474A91698023DB050B43936143B2002BEC
:1004A00049DB9022D205916980231B060B4393619F
:1004B000630648D59022D205916980235B010B43E6
:1004C0009361A30647D53B4A916980239B000B4368
:1004D0009361E30646D5374A916980235B000B435D
:1004E0009361FFF719FF230743D59022D205916945
:1004F00080231B020B439361630742D59022D205F0
:10050000916980235B010B439361A30741D5294A7D
:10051000916980239B000B439361E40740D5254AF2
:10052000916980235B000B439361FFF7F5FE22483E
:10053000FFF7E2FE10BD9022D205916980231B02D5
:100540000B439361B4E79022D205916980235B0548
:100550000B439361B5E7174A916980239B040B43D2
:100560009361B6E7134A916980235B040B4393615F
:10057000B7E79022D205916980231B060B43936154
:10058000BAE79022D205916980235B050B43936102
:10059000BBE7084A916980239B040B439361BCE746
:1005A000044A916980235B040B439361BDE7C04615
:1005B0000008004800040048B80B000010B51B4BB1
:1005C0005969802292020A435A6159698022D202F3
:1005D0000A435A615969802212030A435A619022E0
:1005E000D20511688223DB050B431360104A1168A2
:1005F000A023DB020B4313600E4A1168A023DB0526
:100600000B4313600C48FFF777FE3320FFF73EFFE4
:100610003220FFF73BFF0C20FFF738FF2820FFF7C1
:1006200035FF0120FFF732FF10BDC0460010024029
:1006300000040048000800483075000010B500F0C4
:1006400085FA2E4B18602E4B1B68C01AFA235B00EC
:10065000984203D8012000F0ABFC10BD294B1A686A
:10066000D36829490B40D360284800F060FB012083
:10067000FFF70CFF264B1B68022B20D0244A0133C6
:100680001360234B1B68012B1DD0022B26D0002B9F
:100690002FD12048FFF7EEFE1F4B1A681F491B4859
:1006A000802300F009FB174B1A68D16880239B0058
:1006B0000B43D360124B114A12681A60CAE7144BFD
:1006C00000221A60DDE71648FFF7D4FE124B1A68C5
:1006D00014490E48802300F0EFFAE4E71248FFF7D0
:1006E000C9FE0D4B1A6811490848802300F0E4FA4E
:1006F000D9E70F48FFF7BEFED5E7C04690060020B9
:100700008C06002020070020FFFDFFFF940600203C
:10071000880600209829000800000020040400201A
:10072000A029000804020020AC29000804000020D1
:10073000B829000872B6FEE700B58FB0102200217C
:100740000AA801F0A5FA0822002108A801F0A0FAE1
:100750001C22002101A801F09BFA1F488023DB0521
:1007600003600023436083606422C26003618033BE
:10077000836100F09DFD002824D180235B010A9352
:1007800015480AA900F00CFF00281DD1124800F0FE
:10079000BBFD00281AD10023089309930E4808A92D
:1007A00001F08CF8002813D10023019302930393E6
:1007B00005930948002201A900F040FE002809D154
:1007C0000FB000BDFFF7B6FFFFF7B4FFFFF7B2FFB2
:1007D000FFF7B0FFFFF7AEFF2007002000B58FB096
:1007E000102200210AA801F053FA0822002108A8CB
:1007F00001F04EFA1C22002101A801F049FA21481B
:10080000214B0360002343608360204AC260036180
:100810008033836100F04CFD002828D180235B01E8
:100820000A9318480AA900F0BBFE002821D11548F8
:1008300000F096FD00281ED100230893099311486B
:1008400008A901F03BF8002817D160230193002389
:100850000293039305930B48082201A900F01CFEA4
:1008600000280CD1074800F0F3F80FB000BDFFF7E7
:1008700061FFFFF75FFFFFF75DFFFFF75BFFFFF72C
:1008800059FFC046D806002000040040FF030000C6
:1008900010B51A4A136801218B431360174B1B686C
:1008A000DB07FBD4164A136801210B431360144B7A
:1008B0001B689B07FBD5124B1A68F8218A437839CD
:1008C0000A431A605A6870318A435A605A680D495F
:1008D0000A405A605A6803218A435A60084B5B6891
:1008E0000C221A42FAD1084801F082F8032000F0E5
:1008F000E9F8002800D110BDFFF71CFF00200240DE
:1009000000100240FFF8FFFF00127A0010B500F05F
:1009100001F9FFF753FEFFF7BBFFFFF78BFCFFF773
:10092000D3FCFFF709FFFFF759FF00F04FFBFF2350
:10093000184001F051F91048082100F041FF0F4C18
:100940000021200000F0BEFE0D4B1A680D490E4834
:10095000802300F0B1F90D48FFF7CEFC0120FFF72E
:1009600095FD0B48FFF786FD2268D16880239B0028
:100970000B43D360FEE7C046D806002020070020C6
:10098000000000200404002094060020B80B0000A2
:100990009829000882B00A4B996901221143996194
:1009A00099690A400092009ADA69802149050A4350
:1009B000DA61DB690B400193019B02B07047C046CE
:1009C0000010024010B582B0040003688022D205F6
:1009D000934204D01A4A934227D002B010BD194A5C
:1009E000D16901231943D161D26913400093009B5F
:1009F0001548164B03601023436000238360802258
:100A0000C2608132FF3202618022120142612022E3
:100A10008261C36100F028F9002803D10A4B6362A8
:100A20005C62DAE7FFF786FEF8E7064AD16902233F
:100A30001943D161D26913400193019BCDE7C046B0
:100A400000040040001002409406002058000240BC
:100A500010B586B004001422002101A801F018F995
:100A600022680C4B9A4201D006B010BD0A4B5A695D
:100A70008021C9020A435A615B690B400093009BC5
:100A80000123019302220292059301A9034800F079
:100A9000C9F9E9E7000400400010024000040048E2
:100AA000FEE7FEE77047704710B500F043F810BD51
:100AB00010B5024800F060F910BDC0469406002051
:100AC0007047000010B504000F4B1978FA20800021
:100AD000FFF700FB01000D4B1868FFF7FBFA00F071
:100AE00097F800280DD1032C01D901200AE001302C
:100AF00000222100404200F07BF8054B1C600020E2
:100B000000E0012010BDC0460806002004060020B9
:100B10000C06002010B5064A136810210B43136021
:100B20000320FFF7CFFFFFF735FF002010BDC046C1
:100B300000200240034A1168034B1B785B181360C6
:100B40007047C0466807002008060020014B18685F
:100B50007047C0466807002070B5002811DB830885
:100B6000134DC0339B005C5903221040C000FC327F
:100B700016008640B44389010A40824022435A51FC
:100B800070BD0F230340083B9B0806339B00094AB6
:100B9000944663445C6803221040C000FC32150098
:100BA0008540AC4389010A40824022435A60E7E70E
:100BB00000E100E000ED00E0013880235B04984292
:100BC0000FD2094A50600948036A1B021B0AC02160
:100BD00009060B4303620023936007331360002070
:100BE00070470120FCE7C04610E000E000ED00E0A7
:100BF00010B5FFF7B1FF10BD002805DB1F22024032
:100C000001239340014A13607047C04600E100E0B1
:100C100010B5FFF7D1FF10BD70B5066CC56B012490
:100C2000B4406C60046863604368102B04D00368B0
:100C300099600368DA6070BD03689A600368D960E0
:100C4000F9E7000010B504000068054B9C466044BD
:100C50001421FFF73FFA80002064024BE36310BDCC
:100C6000F8FFFDBF0000024070B5041E20D0212512
:100C70000223435501680A680E4B1A404368806896
:100C80000343E06803432069034360690343A069A9
:100C90000343E069034313430B602000FFF7D2FFD7
:100CA0000023A363012262551F32A354002070BDAC
:100CB0000120FCE70FC0FFFF70B504002020205C7E
:100CC000012832D02020012525540130205C012844
:100CD00004D020230022E254022070BD20300135D0
:100CE00025540020A063256828680126B0432860A9
:100CF0002000FFF791FFE36A002B0BD022681368F6
:100D00000E210B4313602268136801210B4313600B
:100D10000020E2E7226813680A210B43136022686F
:100D2000136806398B431360EDE70220D5E710B551
:100D30002123C35C022B03D004238363012010BD55
:100D4000026813680E218B43136001680A6801234F
:100D50009A430A60016CC26B1C008C4054602122D3
:100D600083541F330022C254436B002B02D0984798
:100D70000020E4E70020E2E770B5C36B1A6804685E
:100D80002568016C04238B401A4212D06B0710D5E2
:100D900023689B0603D42368042293432360016CD9
:100DA000C26B04238B405360C36A002B00D098476A
:100DB00070BD02238B401A4218D0AB0716D52368AA
:100DC0009B0606D423680A22934323602123093A11
:100DD000C254016CC26B02238B405360202300225B
:100DE000C254836A002BE3D09847E1E708238B4085
:100DF0001A42DDD02D07DBD523680E2293432360F2
:100E0000016CC26B01231C008C405460836321225F
:100E100083541F330022C254036B002BC8D0984761
:100E2000C6E70000F0B583B0002356E086685F0097
:100E30000324BC40A643CC68BC403443846044686F
:100E400094434E683609012232409A402243426060
:100E500053E0DE080836B600375805321A409200D3
:100E60000F249440A7430C69944022003A43325027
:100E700056E0032600E00026A64034003C43023240
:100E80009200444E9451444A9768EA433E00AE4370
:100E90004C68E40201D53E002E433F4CA660E76853
:100EA0003E0016404C68A40201D53E002E433A4C49
:100EB000E66067683E0016404C68A40301D53E001A
:100EC0002E43354C6660266832404C68E40301D5F9
:100ED0002A003243304C226001330C682200DA4091
:100EE00056D001229A40250015401442F4D04E6895
:100EF00003243440013C012C98D94C680322224041
:100F0000032A08D0C4685E000322B24094438A6872
:100F1000B2402243C2604C6803222240022A98D089
:100F200004685E0003221700B740BC434F683A4094
:100F3000B240224302604C68C02292021442CBD0DD
:100F4000164CA66901221643A661A46922400192AB
:100F5000019A9A08941CA4000E4EA75903241C4021
:100F6000A4000F26A640B7439026F605B04282D0D3
:100F70000B4EB04208D00B4EB04207D00A4EB042E2
:100F800000D176E7052677E7012675E7022673E7A5
:100F900003B0F0BD00000140000401400010024019
:100FA0000004004800080048000C0048704700009A
:100FB00010B5054B5B69184200D110BD024B58615A
:100FC000FFF7F4FFF9E7C0460004014010B5104BED
:100FD0005A680C231340082B01D00E4810BD910C09
:100FE000073319400C48445C0949C96A0B400B4956
:100FF000C95CD20304D50748FFF76CF86043EDE7FE
:101000006201121B93019B1ADB001B191802E5E712
:101010000010024000127A00F4290008E4290008B8
:1010200030B5036A012293430362056A426883690B
:101030007324A3430C681C4302239D438B682B43FA
:10104000154DA84208D0154DA84205D0144DA84210
:1010500002D0144DA84206D10825AB431D00CB6831
:101060002B430425AB430C4DA84208D00B4DA8429E
:1010700005D00B4DA84202D00A4DA84205D10A4D19
:101080002A404D6915438A692A43426084614A684F
:101090004263036230BDC046002C01400040014065
:1010A0000044014000480140FFFCFFFF30B5036AE7
:1010B000184A13400362046A4268C3697325AB434C
:1010C0000D681D43144B1C408B681B022343134CBB
:1010D000A04209D0124CA0420DD0124CA0420AD01E
:1010E000114CA0420FD106E0104C1C40CB681B02F3
:1010F00023430F4C23400F4C22404C6924011443DE
:101100008A69120122434260C5614A68C263036270
:1011100030BDC046FFFEFFFFFFFDFFFF002C01407A
:10112000004001400044014000480140FFF7FFFF3C
:10113000FFFBFFFFFFCFFFFF30B5036A134A1340E9
:101140000362046A4368C269114D2A400D682D028A
:101150001543104A14408A68120322430E4CA042E1
:1011600008D00E4CA04205D00D4CA04202D00D4C30
:10117000A04204D10C4C1C404B699B0123434360AB
:10118000C5614B680364026230BDC046FFEFFFFFDC
:10119000FF8CFFFFFFDFFFFF002C014000400140FC
:1011A0000044014000480140FFBFFFFF30B5036A23
:1011B000046A0125AC4304628469EF35AC43120133
:1011C00022430A24A3430B438261036230BD000023
:1011D00030B5036A1024A34303628469036A054D92
:1011E0002C4012032243A024A34309011943826126
:1011F000016230BDFF0FFFFF8368702293430B43F2
:10120000693A134383607047704770470368214A07
:10121000904206D08022D205904202D01E4A9042CF
:1012200003D1702293434A6813431A4A904212D062
:101230008022D20590420ED0174A90420BD0174A16
:10124000904208D0164A904205D0164A904202D0E9
:10125000154A904203D1154A1A40CB6813438022A5
:1012600093434A69134303608B68C3620B688362CC
:10127000084B984208D00A4B984205D0094B984237
:1012800002D0094B984201D10B69036301234361EA
:101290007047C046002C0140000400400020004080
:1012A000004001400044014000480140FFFCFFFFB6
:1012B00070B5041E26D03D23C35C002B1CD03D25F9
:1012C00002236355210001C9FFF7A0FF0123462235
:1012D000A354083AA3540132A3540132A354013257
:1012E000A3540132A3540132A3540132A354013256
:1012F000A3546355002070BD3C330022C254FFF755
:1013000061FBDCE70120F6E770B5041E26D03D2323
:10131000C35C002B1CD03D2502236355210001C96D
:10132000FFF774FF01234622A354083AA354013265
:10133000A3540132A3540132A3540132A354013205
:10134000A3540132A3540132A3546355002070BD4D
:101350003C330022C254FFF757FFDCE70120F6E7D9
:1013600070B5041E26D03D23C35C002B1CD03D2548
:1013700002236355210001C9FFF748FF01234622DC
:10138000A354083AA3540132A3540132A3540132A6
:10139000A3540132A3540132A3540132A3540132A5
:1013A000A3546355002070BD3C330022C254FFF7A4
:1013B0002CFFDCE70120F6E770B5036A10229343A7
:1013C0000362026A44688369164D2B400D682D0242
:1013D0001D4320239A438B681B011343124A9042FA
:1013E00009D0124A90420ED0114A90420BD0114AB5
:1013F000904210D107E0802293431E00CB681B016E
:101400003343403A93430C4A14404A6992002243C2
:101410008C69A4001443446085614A688263036256
:1014200070BDC046FF8CFFFF002C01400040014012
:101430000044014000480140FFF3FFFF10B50400E5
:101440003C23C35C012B24D03C230120E054082A18
:101450001AD008D8002A0FD0042A11D12068FFF72B
:10146000ABFF00200CE00C2A04D12068FFF764FEDB
:10147000002005E0012003E02068FFF7D1FD0020F7
:101480003C230022E25410BD2068FFF70FFE00202D
:10149000F6E70220F7E7000070B504000D003C23DA
:1014A000C35C012B00D16AE03C230121C154082A0E
:1014B00050D01CD8002A35D0042A16D10068290043
:1014C000FFF77AFF2268916980231B010B43936128
:1014D000226893692B490B40936121688B692A69C3
:1014E000120213438B61002030E001202EE00C2A11
:1014F00016D100682900FFF71FFE2268D1698023FA
:101500001B010B43D3612268D3691E490B40D36191
:101510002168CB692A6912021343CB61002015E0D0
:10152000012013E000682900FFF77AFD2268936923
:1015300008210B4393612268936904398B439361BB
:101540002268936929690B43936100203C230022A0
:10155000E25470BD00682900FFF7A8FD2268D36936
:1015600008210B43D3612268D36904398B43D361CB
:101570002268D36929690B43D3610020E6E7022082
:10158000E7E7C046FFFBFFFF30B58468034D2C4002
:101590001B0213430B432343836030BDFF00FFFF57
:1015A00010B504000B003C22825C012A00D177E0D8
:1015B0003C220121815401320131815401688A6841
:1015C000384802408A60196860294FD023D84029E2
:1015D00057D011D8202904D00AD8002901D01029C9
:1015E00004D12068FFF708FE00202AE0012028E04F
:1015F0003029F6D0012024E050290AD15968DA6850
:101600002068FFF7D3FD20685021FFF7F5FD00208B
:1016100017E0012015E08022520191423CD0802247
:101620009201914214D0702938D199685A68DB68C8
:101630002068FFF7A9FF2268936877210B43936026
:1016400000203D230122E254013B0022E25410BD60
:1016500099685A68DB682068FFF796FF22689168EE
:101660008023DB010B4393600020EAE75968DA68C6
:101670002068FFF7ADFD20686021FFF7BDFD002069
:10168000DFE75968DA682068FFF790FD206840219D
:10169000FFF7B2FD0020D4E70020D2E70120D0E719
:1016A0000220D4E78800FFFF10B51F231940012452
:1016B0008C40036AA3430362036A8A4013430362B4
:1016C00010BD000010B50400002936D13E23C35CD4
:1016D000013B5A1E9341DBB2002B62D1002945D158
:1016E0003E330222E25420680122FFF7DDFF236827
:1016F0002E4A934208D02E4A934205D02D4A934257
:1017000002D02D4A934204D1596C802212020A431E
:101710005A642368254A934238D08022D2059342E6
:1017200034D0264A934231D0214A93422ED01A68AF
:1017300001210A431A60002034E0042908D0082956
:101740000DD04123C35C013B5A1E9341DBB2C3E77A
:101750003F23C35C013B5A1E9341DBB2BCE74023ED
:10176000C35C013B5A1E9341DBB2B5E7042905D0A7
:10177000082907D041230222E254B4E73F23022282
:10178000E254B0E740230222E254ACE79968072212
:101790000A40062A07D01A6801210A431A6000206D
:1017A00000E0012010BD0020FCE7C046002C0140F5
:1017B0000040014000440140004801400004004056
:1017C00010B50400002936D13E23C35C013B5A1EEC
:1017D0009341DBB2002B62D1002945D13E33022276
:1017E000E25420680122FFF75FFF23682E4A9342EC
:1017F00008D02E4A934205D02D4A934202D02D4A5A
:10180000934204D1596C802212020A435A6423681D
:10181000254A934238D08022D205934234D0264ABA
:10182000934231D0214A93422ED01A6801210A43B3
:101830001A60002034E0042908D008290DD0412383
:10184000C35C013B5A1E9341DBB2C3E73F23C35C39
:10185000013B5A1E9341DBB2BCE74023C35C013B12
:101860005A1E9341DBB2B5E7042905D0082907D0F9
:1018700041230222E254B4E73F230222E254B0E7BC
:1018800040230222E254ACE7996807220A40062A64
:1018900007D01A6801210A431A60002000E00120E5
:1018A00010BD0020FCE7C046002C01400040014074
:1018B00000440140004801400004004030B53C2392
:1018C000C35C012B28D03C230122C25401330132D6
:1018D000C25403685C689D686E3294430A68224370
:1018E0005A6003680D4A934209D08022D205934280
:1018F00005D00B4A934202D00A4A934204D1802277
:1019000095434A682A439A603D230122C254013B11
:101910000022C254002030BD0220FCE7002C014010
:10192000000400400040014010B503000079002889
:101930004ED01A68002A55D0587901281ED00228A6
:1019400026D000282ED129494C6894434C601A684F
:101950000C6822430A609A79002A42D0022A23D0D6
:10196000032A2BD0012A3FD11C68204AD168A14309
:10197000D1601B6891680B43936032E01B49086893
:10198000904308601A68486802434A600020E2E712
:101990001649086802430A601A68486802434A60A8
:1019A0000020D8E70120D6E71C68104A9168A143BF
:1019B00091601B68D1680B43D36012E019680B4A31
:1019C0009468214391601B68D1680B43D36008E0A1
:1019D0001C68064A1168A1431160196853688B435B
:1019E000536010BD0020FCE70120FAE7000401402D
:1019F000014B18607047C046040600200D4885461C
:101A0000FFF75EF80C480D490D4A002302E0D45858
:101A1000C4500433C4188C42F9D30A4A0A4C002338
:101A200001E013600432A242FBD300F087F9FEF715
:101A30006DFFFEE700200020000000206C06002063
:101A4000402A00086C060020BC080020FEE70000C9
:101A5000002310B504000360436083608181436606
:101A6000C281036143618361190008225C3000F088
:101A70000FF90B4B246263620A4BA3620A4BE362C9
:101A80000A4B23630A4B9C4205D00A4B9C4202D06E
:101A9000094B9C4203D12000583000F073F910BD6F
:101AA000F91B0008211C0008591C0008851C0008AF
:101AB0006C070020D40700203C08002010B5034A22
:101AC0000349044800F06CF810BDC0461006002021
:101AD000112600082006002041680B4B10B50400B9
:101AE000994201D000F094FDA168084B994202D0C0
:101AF000200000F08DFDE168054B994202D02000E6
:101B000000F086FD10BDC0466C070020D407002001
:101B10003C08002010B5094B094A04211A60094805
:101B20000022FFF795FF012209210748FFF790FFE8
:101B3000022212210548FFF78BFF10BDA4080020E8
:101B4000BD1A00086C070020D40700203C080020C4
:101B500010B5024800F017F910BDC046AD080020CE
:101B600010B5024800F010F910BDC046AD080020C5
:101B700010B50400FFF7ECFF236A002B02D0FFF73B
:101B8000EFFF10BD044B2362044B1B68002BF6D102
:101B9000FFF7C0FFF3E7C046D91A0008A4080020E9
:101BA000F7B51400002600900191A5686768013F11
:101BB00004D52468002CF8D13000FEBDAB89012B80
:101BC00008D90E22AB5E013304D029000098019B96
:101BD000984706436835EAE70FB407B5054904ABF3
:101BE000086804CB8168019300F0F4F903B008BCE5
:101BF00004B018471C06002070B50C000E25495F84
:101C000000F074F8002803DB636D1B18636570BD7A
:101C1000A389024A1340A381F9E7C046FFEFFFFF03
:101C2000F8B51F008B8905000C001600DB0505D5F3
:101C30000E23C95E0022022300F044F8A389054A5E
:101C400028001340A38132000E23E15E3B0000F028
:101C500061F8F8BDFFEFFFFF70B50C000E25495F7E
:101C600000F030F8A389421C03D1054A1340A38138
:101C700070BD802252011343A3816065F8E7C0461E
:101C8000FFEFFFFF10B50E23C95E00F009F810BD8D
:101C900003008218934200D1704719700133F9E7AD
:101CA000002370B5064D040008002B6000F02AFEEA
:101CB000431C03D12B68002B00D0236070BDC046AD
:101CC000A808002070B50400080011001A000023C5
:101CD000054D2B6000F02EFE431C03D12B68002B1A
:101CE00000D0236070BDC046A808002070B5040075
:101CF000080011001A000023054D2B6000F022FEA1
:101D0000431C03D12B68002B00D0236070BDC0465C
:101D1000A808002070B50400080011001A00002374
:101D2000054D2B6000F024FE431C03D12B68002BD3
:101D300000D0236070BDC046A808002070B5002602
:101D40000C4C0D4D641BA410A64209D1002600F0D6
:101D500017FE0A4C0A4D641BA410A64205D170BDA3
:101D6000B300EB5898470136EEE7B300EB589847BD
:101D70000136F2E7382A0008382A00083C2A000811
:101D8000382A0008704770477047000070B505009A
:101D90000C1E10D0043C2368002B00DAE418280045
:101DA00000F0E0F81D4A1368002B05D16360146051
:101DB000280000F0DFF870BDA34208D92068211880
:101DC0008B42F3D119685B6809182160EEE71A00AD
:101DD0005B68002B01D0A342F9D911685018A042CA
:101DE0000BD120680918501811608342E0D118689F
:101DF0005B68411811605360DAE7A04202D90C23F6
:101E00002B60D5E7206821188B4203D119685B68E5
:101E10000918216063605460CAE7C046B408002016
:101E200070B50F4E0D0031680400002902D100F09A
:101E3000BBFC30602900200000F0B6FC431C03D13D
:101E400001256D42280070BD0323C51C9D43A84297
:101E5000F8D0291A200000F0A7FC0130F2D1EFE7FA
:101E6000B0080020F7B50322CB1C934308330500CC
:101E70001F000C2B34D20C27B94233D8280000F0B5
:101E800071F8374E33681C00002C2FD13900280020
:101E9000FFF7C6FF0400431C5FD134680094009B29
:101EA000002B4AD1002C52D023682800E318009957
:101EB000019300F079FC019B834248D123682800FC
:101EC000FF1A3900FFF7ACFF013040D02368DB195F
:101ED000236033685A68002A33D1009B336019E0CD
:101EE000002BC9DA0C232B600020FEBD2168C91B22
:101EF00020D40B290AD9E2192760A34204D1326009
:101F000063681160536005E05A60F9E76268A342B4
:101F10000ED13260280000F02DF8200007220B308F
:101F2000231D9043C21A9842DFD01B1AA350DCE74E
:101F30005A60EFE723006468A6E7009C636800939B
:101F4000ADE71A005B68A342FBD10023DAE70C235C
:101F500028002B6000F00EF8C6E70760DAE7C046FD
:101F6000B408002010B50248FFF70DFF10BDC046B1
:101F7000AC08002010B50248FFF706FF10BDC046B0
:101F8000AC080020936810B5013B9360002B04DA85
:101F90009469A34207DB0A2905D01368581C106016
:101FA0001970080010BD00F05EFB0100F9E7F8B5FC
:101FB00006000F001400D518AC4201D1002007E044
:101FC00021783A003000FFF7DDFF0134431CF3D1E4
:101FD000F8BD0000F0B5A1B00F0015001E00039081
:101FE000002804D0036A002B01D1FFF7C1FD7B6EEE
:101FF000DB0705D4BB899B0502D4B86DFFF7C3FE90
:10200000BB891B0702D53B69002B13D1390003980C
:1020100000F06CFB00280DD07B6EDB0703D50120A0
:10202000404221B0F0BDBB899B05F8D4B86DFFF7E5
:10203000ABFEF4E7002308AC636120336376103312
:10204000A37607962E003378002B01D0252B48D19C
:10205000731B0593AE420BD02A0039000398FFF79B
:10206000A6FF013000D1AEE06369059A9B18636159
:102070003378002B00D1A6E0012200235242626097
:1020800004A954325218751C2360E360A3601370D6
:10209000A365594B052218002978059300F096FB9B
:1020A0006E1C00281FD12268D30604D5532304A92F
:1020B0005B1820211970130704D5532304A95B185A
:1020C0002B2119702B782A2B16D02E0000210A20E4
:1020D000E3683278751C303A092A50D9002911D1A9
:1020E00017E00136AFE7059B2268C01A0123834041
:1020F000134335002360CCE7079B191D1B6807912C
:10210000002B01DB0B9304E05B42E36002231343EB
:10211000236033782E2B0CD173782A2B34D1079B74
:1021200002361A1D1B680792002B01DA01235B425D
:102130000993324D03222800317800F047FB002834
:1021400006D04023401B834022680136134323609E
:10215000317806222A48751C217600F037FB0028CA
:1021600040D0284B002B22D10722079B07339343F3
:10217000083307936369049A9B18636162E74343DA
:102180002E0001219B18A4E700230A201900013624
:1021900063603278751C303A092A03D9002BC8D005
:1021A0000991C6E741432E0001238918F1E707AAE8
:1021B000009221003A00144B039800E000BF049005
:1021C000049B0133D6D17B6EDB0705D4BB899B050D
:1021D00002D4B86DFFF7D8FDBB895B0600D51EE7BA
:1021E0000D981EE707AA009221003A00064B0398BB
:1021F00000F07CF8E3E7C046042A00080A2A000839
:102200000E2A000800000000AF1F0008F7B51600F6
:1022100001938A680B690C000090934200DA130066
:102220002200336043321278002A01D00133336038
:1022300023689B0602D53368023333602268062385
:1022400015001D401A4227D0230043331B785A1E25
:1022500093412268920630D4220001990098089D8B
:102260004332A847013025D00622236800251340B9
:10227000042B05D13368E568ED1AEB43DB171D40ED
:10228000A3682269934201DD9B1AED180026B5422E
:1022900020D1002010E00135E36832689B1AAB4280
:1022A000D2DD2200012301990098089F1932B84716
:1022B0000130F0D101204042FEBD3020E118433111
:1022C000087021005A1C45310978A21843320233A4
:1022D0001170C1E72200012301990098089F1A326A
:1022E000B8470130E6D00136D1E70000F0B58BB039
:1022F00006920A0043320793059003920A7E0C006F
:10230000109B782A09D8622A0BD8002A00D1BAE09B
:102310007A490491582A00D18EE0250042352A706E
:1023200022E0100063381528F7D8FDF7C9FE160023
:102330001F00F6FFF6FFF6FFF6FF1F00F6FFF6FFA1
:10234000F6FFF6FF9F0036007E00F6FFF6FFB000B6
:10235000F6FF3600F6FFF6FF820025001A684235C8
:10236000111D196013682B7001239EE0186809681D
:10237000021D0D060BD506681A60002E03DA2D2308
:10238000039A764213705D4B0A27049318E006689F
:102390001A604906F1D536B2EFE70868196840C9F6
:1023A000050602D4400600D5B6B21960534B0A2781
:1023B00004936F2A00D1023F2300002243331A7096
:1023C0006368A360002B06DB04212268039D8A4317
:1023D000226033430CD0039D30003900FDF700FF2D
:1023E000049B013D5B5C2B70330006009F42F3D9D8
:1023F000082F09D12368DB0706D5626823699A4252
:1024000002DC3023013D2B70039B5B1B2361079B88
:10241000210000930598069B09AAFFF7F7FE0130FB
:1024200048D1012040420BB0F0BD202209680A4388
:102430002260782232490491210045310A701968DE
:10244000226840C9100602D4500600D5B6B2196001
:10245000D30702D5202313432360002E01D0102779
:10246000AAE72022236893432360F8E71A680D68DF
:10247000101D4969186013682E0601D5196002E025
:102480006D06FBD519800023039D2361BFE71A6801
:10249000111D1960156800212800626800F096F986
:1024A000002801D0401B6060636823610023039A09
:1024B0001370ACE72A00236906990598079DA84781
:1024C0000130AED023689B0715D4099BE068984281
:1024D000A9DA1800A7E72200012306990598079EAC
:1024E0001932B04701309CD00135E368099A9B1A34
:1024F000AB42F0DCE9E70025F7E7C046152A000803
:10250000262A0008F7B50C228B5E05000C001A077E
:1025100056D44A68002A02DC0A6C002A4EDDE76ABB
:10252000002F4BD0002280202E682A601A00400124
:10253000216A0240034233D0626DA3895B0706D54E
:102540006368D21A636B002B01D0236CD21A00236C
:102550002800E76A216AB847A289431C06D1296886
:102560001D2946D8294BCB40DB0742D500236360A9
:1025700023692360D20405D5431C02D12B68002BAC
:1025800000D16065616B2E60002917D023004433B1
:10259000994202D02800FFF7F9FB002363630DE0A6
:1025A00001232800B8470200431CC6D12B68002B2A
:1025B000C3D01D2B01D0162B1AD12E6000201EE097
:1025C0000E69002EFAD00F680E60BA1B019200222D
:1025D0009B0700D14A69A260019B002BEEDDA36A34
:1025E00032001F002800019B216AB847002807DC41
:1025F000A2894023012013431BB2A3814042FEBDA8
:10260000019B36181B1A0193E6E7C04601004020E3
:102610000B6970B505000C00002B02D100252800C5
:1026200070BD002804D0036A002B01D1FFF7A0FA87
:102630000C22A35E002BF1D0626ED20704D49B055E
:1026400002D4A06DFFF79FFB28002100FFF75AFF7F
:10265000636E0500DB07E2D4A3899B05DFD4A06D80
:10266000FFF792FBDBE7F8B506000D001400002829
:1026700004D0036A002B01D1FFF77AFAA369A360A3
:10268000A3891B0702D52369002B09D12100300043
:1026900000F02CF8002803D001256D422800F8BD79
:1026A00023692068EFB2C01A6369EDB2834205DC8A
:1026B00021003000FFF7ACFF0028EDD1A368013006
:1026C000013BA36023685A1C22601F706369834228
:1026D00004D0A389DB07E1D50A2DDFD1210030002A
:1026E000FFF796FF0028D9D0D6E700002D4B70B534
:1026F000050018680C00002804D0036A002B01D1E3
:10270000FFF736FA0C22A35E1A0723D4DA0607D4A1
:1027100009222A60402201201343A38140423AE06B
:102720005B0713D5616B002908D02300443399421D
:1027300002D02800FFF72AFB002363632422A38929
:102740009343A38100236360236923600823A28944
:102750001343A3812369002B0BD1A0218022A389DD
:10276000890092000B40934203D02100280000F022
:1027700063F80C22A35E01211A000A400B420BD021
:102780000022A26062695242A26100202269824254
:1027900001D11A06BED470BD990700D46269A26047
:1027A000F3E7C0461C060020002370B5064D040068
:1027B00008002B6000F0CEF8431C03D12B68002BDF
:1027C00000D0236070BDC046A8080020C9B282189E
:1027D000904201D10020704703788B42FBD001303A
:1027E000F6E7000070B50E001D000E23C95E140050
:1027F00096B000290CDAB2898023110019401A42E0
:1028000014D18023DB0000202960236016B070BD46
:102810006A4600F053F80028EDDBF02301991B0213
:102820001940044BC9184B425941EAE700214023A3
:10283000E9E7C04600E0FFFFF0B502268B890500FE
:102840000C0085B0334207D0230047332360236157
:102850000123636105B0F0BD03AB02AAFFF7C2FF1D
:10286000029F019039002800FFF7FCFA002808D1E8
:102870000C22A35E9A05EDD4032293431E43A68146
:10288000E2E78023A28920601343A381039B206198
:102890006761002B0CD028000E23E15E00F020F8C9
:1028A000002805D00323A2899A43023B1343A38146
:1028B000A389019A1343A381CCE70000002370B5DC
:1028C000064D0400080011002B6000F023F8431CA3
:1028D00003D12B68002B00D0236070BDA808002016
:1028E000002370B5064D040008002B6000F01AF8B4
:1028F000431C03D12B68002B00D0236070BDC04661
:10290000A808002058220120014B40421A6070475D
:10291000A808002058220120014B40421A6070474D
:10292000A80800205822024B00201A607047C046B9
:10293000A808002058220120014B40421A6070472D
:10294000A808002058220120014B40421A6070471D
:10295000A8080020044A03001068002802D0C31809
:10296000136070470148FAE7B8080020C00800204B
:1029700058220120014B40421A607047A8080020ED
:10298000F8B5C046F8BC08BC9E467047F8B5C046CE
:08299000F8BC08BC9E4670472C
:1029980053696E6500000000536177746F6F746847
:1029A80000000000547269616E676C6500000000E9
:1029B800416E206572726F7220686173206F636365
:1029C800757265642077697468207468652077611A
:1029D800766520636F756E746572000001020304EA
:1029E80005060708090A0B0C0D0E0F100203040553
:1029F800060708090A0B0C0D0E0F1010232D302B9B
:102A08002000686C4C0065666745464700303132E7
:102A1800333435363738394142434445460030313E
:102A2800323334353637383961626364656600009D
:042A3800150200087B
:042A3C00ED010008A0
:102A40003C040040000000001000000020000000D6
:102A50003000000041000000510000006100000053
:102A6000710000008100000091000000A100000042
:102A7000B1000000C1000000D1000000E100000032
:102A8000F10000000101000011010000210100001F
:102A9000310100004101000051010000610100000E
:102AA000710100008101000091010000A1010000FE
:102AB000B1010000C1010000D1010000E1010000EE
:102AC000F1010000010200001102000021020000DB
:102AD00031020000410200005102000061020000CA
:102AE000710200008102000091020000A1020000BA
:102AF000B1020000C1020000D1020000E1020000AA
:102B0000F102000001030000110300002103000096
:102B10003103000041030000510300006103000085
:102B2000710300008103000091030000A103000075
:102B3000B1030000C1030000D1030000E103000065
:102B4000F1030000FF030000F1030000E1030000B7
:102B5000D1030000C1030000B1030000A103000085
:102B60009103000081030000710300006103000075
:102B70005103000041030000310300002103000065
:102B80001103000001030000F1020000E102000057
:102B9000D1020000C1020000B1020000A102000049
:102BA0009102000081020000710200006102000039
:102BB0005102000041020000310200002102000029
:102BC0001102000001020000F1010000E10100001B
:102BD000D1010000C1010000B1010000A10100000D
:102BE00091010000810100007101000061010000FD
:102BF00051010000410100003101000021010000ED
:102C00001101000001010000F1000000E1000000DE
:102C1000D1000000C1000000B1000000A1000000D0
:102C200091000000810000007100000061000000C0
:102C300051000000410000003000000020000000B2
:102C4000100000000000000008000000100000005C
:102C500018000000200000002800000030000000E4
:102C60003800000040000000480000005000000054
:102C700058000000600000006800000070000000C4
:102C80007800000080000000880000009000000034
:102C900099000000A1000000A9000000B1000000A0
:102CA000B9000000C1000000C9000000D100000010
:102CB000D9000000E1000000E9000000F100000080
:102CC000F9000000010100000901000011010000ED
:102CD00019010000210100002A010000320100005A
:102CE0003A010000420100004A01000052010000C8
:102CF0005A010000620100006A0100007201000038
:102D00007A010000820100008A01000092010000A7
:102D10009A010000A2010000AA010000B201000017
:102D2000BB010000C3010000CB010000D301000083
:102D3000DB010000E3010000EB010000F3010000F3
:102D4000FB010000030200000B0200001302000060
:102D50001B020000230200002B02000033020000CF
:102D60003B020000430200004C020000540200003D
:102D70005C020000640200006C02000074020000AB
:102D80007C020000840200008C020000940200001B
:102D90009C020000A4020000AC020000B40200008B
:102DA000BC020000C4020000CC020000D4020000FB
:102DB000DD020000E5020000ED020000F502000067
:102DC000FD020000050300000D03000015030000D4
:102DD0001D030000250300002D0300003503000043
:102DE0003D030000450300004D03000055030000B3
:102DF0005D030000650300006E0300007603000021
:102E00007E030000860300008E030000960300008E
:102E10009E030000A6030000AE030000B6030000FE
:102E2000BE030000C6030000CE030000D60300006E
:102E3000DE030000E6030000EE030000F6030000DE
:102E4000FF030000FF010000180200003202000032
:102E50004B020000640200007C02000095020000AA
:102E6000AD020000C4020000DB020000F20200001C
:102E7000080300001D0300003203000046030000A9
:102E8000590300006B0300007C0300008D03000069
:102E90009C030000AA030000B8030000C403000064
:102EA000CF030000D9030000E2030000EA030000A2
:102EB000F0030000F6030000FA030000FD03000029
:102EC000FE030000FE030000FE030000FB03000001
:102ED000F8030000F3030000ED030000E603000028
:102EE000DE030000D4030000CA030000BE0300009C
:102EF000B1030000A3030000940300008503000059
:102F000074030000620300004F0300003C03000054
:102F10002803000013030000FD020000E702000088
:102F2000D0020000B8020000A102000088020000E8
:102F300070020000570200003E020000250200005F
:102F40000C020000F2010000D9010000C0010000E5
:102F5000A70100008E010000760100005D01000065
:102F6000460100002E0100001701000001010000D1
:102F7000EB000000D6000000C2000000AF0000001F
:102F80009C0000008A000000790000006A00000038
:102F90005B0000004D000000400000003400000015
:102FA0002A000000200000001800000011000000AE
:102FB0000B000000060000000300000000000000FD
:102FC00000000000000000000100000004000000FC
:102FD000080000000E000000140000001C000000AB
:102FE000250000002F0000003A000000460000000D
:102FF0005400000062000000710000008200000028
:1030000093000000A5000000B8000000CC00000004
:10301000E1000000F60000000C01000023010000A8
:103020003A01000051010000690100008201000026
:103030009A010000B3010000CC010000E60100008D
:10304000FF01000000127A000100000004000000EF
:1030500000000000030000006C0700202006002094
:10306000000000006C070020D40700203C0800206E
:103070000000000000000000000000000000000050
:103080000000000000000000000000000000000040
:103090000000000000000000000000000000000030
:0C30A00000000000000000000000000024
:04000005080019FDD9
:00000001FF
