:020000040800F2
:10000000002000207D010008530100085501000870
:1000100000000000000000000000000000000000E0
:100020000000000000000000000000005701000870
:100030000000000000000000590100085B010008FA
:10004000CD010008CD010008CD010008CD01000858
:10005000CD010008CD010008CD010008CD01000848
:10006000CD010008CD010008CD010008CD01000838
:10007000CD010008CD010008CD010008CD01000828
:10008000CD010008CD01000800000000CD010008EE
:10009000CD010008CD010008CD010008CD01000808
:1000A000CD010008CD010008CD010008CD010008F8
:1000B000CD01000800000000CD0100080000000094
:1000C00010B5064C2378002B07D1054B002B02D02E
:1000D000044800E000BF0123237010BD040000208D
:1000E0000000000018020008044B10B5002B03D0DC
:1000F0000349044800E000BF10BDC04600000000F6
:10010000080000201802000800200020110100084B
:1001100006484169064A1143416106485521C160BC
:100120000549064A0A6000224A61FDE700100240C4
:10013000000006000000004800040048555500007B
:10014000000000000000000010B5FFF7E1FF0020F4
:1001500010BDFEE7FEE77047704710B500F002F8EB
:1001600010BD7047034A1168034B1B785B1813607E
:100170007047C04620000020000000200D48854642
:10018000FFF7EFFF0C480D490D4A002302E0D45859
:10019000C4500433C4188C42F9D30A4A0A4C0023D1
:1001A00001E013600432A242FBD300F011F8FFF724
:1001B000CBFFFEE70020002000000020040000200C
:1001C000380200080400002024000020FEE70000A0
:1001D00070B500260C4C0D4D641BA410A64209D12D
:1001E000002600F019F80A4C0A4D641BA410A64220
:1001F00005D170BDB300EB5898470136EEE7B30068
:10020000EB5898470136F2E7300200083002000848
:100210003402000830020008F8B5C046F8BC08BC3B
:100220009E467047F8B5C046F8BC08BC9E4670476D
:04023000E9000008D9
:04023400C1000008FD
:0402380001000000C1
:040000050800017D71
:00000001FF
